{
  "_format": "hh-sol-artifact-1",
  "contractName": "Organization",
  "sourceName": "contracts/Organization.sol",
  "abi": [
    {
      "inputs": [
        {
          "internalType": "string",
          "name": "_organizationName",
          "type": "string"
        },
        {
          "internalType": "address",
          "name": "_owner",
          "type": "address"
        },
        {
          "internalType": "address",
          "name": "_paymentToken",
          "type": "address"
        }
      ],
      "stateMutability": "nonpayable",
      "type": "constructor"
    },
    {
      "inputs": [
        {
          "internalType": "address",
          "name": "owner",
          "type": "address"
        }
      ],
      "name": "OwnableInvalidOwner",
      "type": "error"
    },
    {
      "inputs": [
        {
          "internalType": "address",
          "name": "account",
          "type": "address"
        }
      ],
      "name": "OwnableUnauthorizedAccount",
      "type": "error"
    },
    {
      "inputs": [],
      "name": "ReentrancyGuardReentrantCall",
      "type": "error"
    },
    {
      "inputs": [
        {
          "internalType": "address",
          "name": "token",
          "type": "address"
        }
      ],
      "name": "SafeERC20FailedOperation",
      "type": "error"
    },
    {
      "anonymous": false,
      "inputs": [
        {
          "indexed": true,
          "internalType": "address",
          "name": "employee",
          "type": "address"
        },
        {
          "indexed": false,
          "internalType": "uint256",
          "name": "salaryPerSecond",
          "type": "uint256"
        },
        {
          "indexed": false,
          "internalType": "string",
          "name": "name",
          "type": "string"
        }
      ],
      "name": "EmployeeAdded",
      "type": "event"
    },
    {
      "anonymous": false,
      "inputs": [
        {
          "indexed": true,
          "internalType": "address",
          "name": "employee",
          "type": "address"
        }
      ],
      "name": "EmployeeRemoved",
      "type": "event"
    },
    {
      "anonymous": false,
      "inputs": [
        {
          "indexed": true,
          "internalType": "address",
          "name": "depositor",
          "type": "address"
        },
        {
          "indexed": false,
          "internalType": "uint256",
          "name": "amount",
          "type": "uint256"
        }
      ],
      "name": "FundsDeposited",
      "type": "event"
    },
    {
      "anonymous": false,
      "inputs": [
        {
          "indexed": true,
          "internalType": "address",
          "name": "previousOwner",
          "type": "address"
        },
        {
          "indexed": true,
          "internalType": "address",
          "name": "newOwner",
          "type": "address"
        }
      ],
      "name": "OwnershipTransferred",
      "type": "event"
    },
    {
      "anonymous": false,
      "inputs": [
        {
          "indexed": true,
          "internalType": "address",
          "name": "employee",
          "type": "address"
        },
        {
          "indexed": false,
          "internalType": "uint256",
          "name": "amount",
          "type": "uint256"
        }
      ],
      "name": "PaymentProcessed",
      "type": "event"
    },
    {
      "anonymous": false,
      "inputs": [
        {
          "indexed": true,
          "internalType": "address",
          "name": "employee",
          "type": "address"
        },
        {
          "indexed": false,
          "internalType": "uint256",
          "name": "amount",
          "type": "uint256"
        },
        {
          "indexed": false,
          "internalType": "uint256",
          "name": "frequency",
          "type": "uint256"
        },
        {
          "indexed": false,
          "internalType": "uint256",
          "name": "nextPaymentDate",
          "type": "uint256"
        }
      ],
      "name": "PaymentScheduleSet",
      "type": "event"
    },
    {
      "anonymous": false,
      "inputs": [
        {
          "indexed": true,
          "internalType": "address",
          "name": "employee",
          "type": "address"
        },
        {
          "indexed": false,
          "internalType": "uint256",
          "name": "amount",
          "type": "uint256"
        }
      ],
      "name": "PaymentWithdrawn",
      "type": "event"
    },
    {
      "anonymous": false,
      "inputs": [
        {
          "indexed": true,
          "internalType": "address",
          "name": "employee",
          "type": "address"
        },
        {
          "indexed": false,
          "internalType": "uint256",
          "name": "oldSalary",
          "type": "uint256"
        },
        {
          "indexed": false,
          "internalType": "uint256",
          "name": "newSalary",
          "type": "uint256"
        }
      ],
      "name": "SalaryUpdated",
      "type": "event"
    },
    {
      "inputs": [
        {
          "internalType": "address",
          "name": "employeeAddress",
          "type": "address"
        },
        {
          "internalType": "uint256",
          "name": "salaryPerSecond",
          "type": "uint256"
        },
        {
          "internalType": "string",
          "name": "name",
          "type": "string"
        }
      ],
      "name": "addEmployee",
      "outputs": [],
      "stateMutability": "nonpayable",
      "type": "function"
    },
    {
      "inputs": [
        {
          "internalType": "address",
          "name": "",
          "type": "address"
        }
      ],
      "name": "availableBalance",
      "outputs": [
        {
          "internalType": "uint256",
          "name": "",
          "type": "uint256"
        }
      ],
      "stateMutability": "view",
      "type": "function"
    },
    {
      "inputs": [
        {
          "internalType": "uint256",
          "name": "amount",
          "type": "uint256"
        }
      ],
      "name": "depositFunds",
      "outputs": [],
      "stateMutability": "nonpayable",
      "type": "function"
    },
    {
      "inputs": [],
      "name": "emergencyWithdraw",
      "outputs": [],
      "stateMutability": "nonpayable",
      "type": "function"
    },
    {
      "inputs": [
        {
          "internalType": "uint256",
          "name": "",
          "type": "uint256"
        }
      ],
      "name": "employeeList",
      "outputs": [
        {
          "internalType": "address",
          "name": "",
          "type": "address"
        }
      ],
      "stateMutability": "view",
      "type": "function"
    },
    {
      "inputs": [
        {
          "internalType": "address",
          "name": "",
          "type": "address"
        }
      ],
      "name": "employees",
      "outputs": [
        {
          "internalType": "address",
          "name": "employeeAddress",
          "type": "address"
        },
        {
          "internalType": "uint256",
          "name": "salaryPerSecond",
          "type": "uint256"
        },
        {
          "internalType": "uint256",
          "name": "startDate",
          "type": "uint256"
        },
        {
          "internalType": "uint256",
          "name": "lastPaymentDate",
          "type": "uint256"
        },
        {
          "internalType": "bool",
          "name": "isActive",
          "type": "bool"
        },
        {
          "internalType": "string",
          "name": "name",
          "type": "string"
        }
      ],
      "stateMutability": "view",
      "type": "function"
    },
    {
      "inputs": [],
      "name": "getAllEmployees",
      "outputs": [
        {
          "internalType": "address[]",
          "name": "",
          "type": "address[]"
        }
      ],
      "stateMutability": "view",
      "type": "function"
    },
    {
      "inputs": [
        {
          "internalType": "address",
          "name": "employeeAddress",
          "type": "address"
        }
      ],
      "name": "getEmployee",
      "outputs": [
        {
          "internalType": "address",
          "name": "",
          "type": "address"
        },
        {
          "internalType": "uint256",
          "name": "",
          "type": "uint256"
        },
        {
          "internalType": "uint256",
          "name": "",
          "type": "uint256"
        },
        {
          "internalType": "uint256",
          "name": "",
          "type": "uint256"
        },
        {
          "internalType": "bool",
          "name": "",
          "type": "bool"
        },
        {
          "internalType": "string",
          "name": "",
          "type": "string"
        }
      ],
      "stateMutability": "view",
      "type": "function"
    },
    {
      "inputs": [],
      "name": "getOrganizationStats",
      "outputs": [
        {
          "internalType": "uint256",
          "name": "_totalEmployees",
          "type": "uint256"
        },
        {
          "internalType": "uint256",
          "name": "_totalFunds",
          "type": "uint256"
        },
        {
          "internalType": "uint256",
          "name": "_totalPaidOut",
          "type": "uint256"
        }
      ],
      "stateMutability": "view",
      "type": "function"
    },
    {
      "inputs": [
        {
          "internalType": "address",
          "name": "employeeAddress",
          "type": "address"
        }
      ],
      "name": "getPaymentSchedule",
      "outputs": [
        {
          "internalType": "uint256",
          "name": "",
          "type": "uint256"
        },
        {
          "internalType": "uint256",
          "name": "",
          "type": "uint256"
        },
        {
          "internalType": "uint256",
          "name": "",
          "type": "uint256"
        },
        {
          "internalType": "bool",
          "name": "",
          "type": "bool"
        }
      ],
      "stateMutability": "view",
      "type": "function"
    },
    {
      "inputs": [
        {
          "internalType": "address",
          "name": "employeeAddress",
          "type": "address"
        }
      ],
      "name": "getPendingPayment",
      "outputs": [
        {
          "internalType": "uint256",
          "name": "",
          "type": "uint256"
        }
      ],
      "stateMutability": "view",
      "type": "function"
    },
    {
      "inputs": [],
      "name": "organizationName",
      "outputs": [
        {
          "internalType": "string",
          "name": "",
          "type": "string"
        }
      ],
      "stateMutability": "view",
      "type": "function"
    },
    {
      "inputs": [],
      "name": "owner",
      "outputs": [
        {
          "internalType": "address",
          "name": "",
          "type": "address"
        }
      ],
      "stateMutability": "view",
      "type": "function"
    },
    {
      "inputs": [
        {
          "internalType": "address",
          "name": "",
          "type": "address"
        }
      ],
      "name": "paymentSchedules",
      "outputs": [
        {
          "internalType": "uint256",
          "name": "amount",
          "type": "uint256"
        },
        {
          "internalType": "uint256",
          "name": "nextPaymentDate",
          "type": "uint256"
        },
        {
          "internalType": "uint256",
          "name": "frequency",
          "type": "uint256"
        },
        {
          "internalType": "bool",
          "name": "isActive",
          "type": "bool"
        }
      ],
      "stateMutability": "view",
      "type": "function"
    },
    {
      "inputs": [],
      "name": "paymentToken",
      "outputs": [
        {
          "internalType": "contract IERC20",
          "name": "",
          "type": "address"
        }
      ],
      "stateMutability": "view",
      "type": "function"
    },
    {
      "inputs": [],
      "name": "processAllPayments",
      "outputs": [],
      "stateMutability": "nonpayable",
      "type": "function"
    },
    {
      "inputs": [
        {
          "internalType": "address",
          "name": "employeeAddress",
          "type": "address"
        }
      ],
      "name": "processPayment",
      "outputs": [],
      "stateMutability": "nonpayable",
      "type": "function"
    },
    {
      "inputs": [
        {
          "internalType": "address",
          "name": "employeeAddress",
          "type": "address"
        }
      ],
      "name": "removeEmployee",
      "outputs": [],
      "stateMutability": "nonpayable",
      "type": "function"
    },
    {
      "inputs": [],
      "name": "renounceOwnership",
      "outputs": [],
      "stateMutability": "nonpayable",
      "type": "function"
    },
    {
      "inputs": [
        {
          "internalType": "address",
          "name": "employeeAddress",
          "type": "address"
        },
        {
          "internalType": "uint256",
          "name": "amount",
          "type": "uint256"
        },
        {
          "internalType": "uint256",
          "name": "frequency",
          "type": "uint256"
        }
      ],
      "name": "setPaymentSchedule",
      "outputs": [],
      "stateMutability": "nonpayable",
      "type": "function"
    },
    {
      "inputs": [],
      "name": "totalEmployees",
      "outputs": [
        {
          "internalType": "uint256",
          "name": "",
          "type": "uint256"
        }
      ],
      "stateMutability": "view",
      "type": "function"
    },
    {
      "inputs": [],
      "name": "totalFunds",
      "outputs": [
        {
          "internalType": "uint256",
          "name": "",
          "type": "uint256"
        }
      ],
      "stateMutability": "view",
      "type": "function"
    },
    {
      "inputs": [
        {
          "internalType": "address",
          "name": "",
          "type": "address"
        }
      ],
      "name": "totalPaid",
      "outputs": [
        {
          "internalType": "uint256",
          "name": "",
          "type": "uint256"
        }
      ],
      "stateMutability": "view",
      "type": "function"
    },
    {
      "inputs": [
        {
          "internalType": "address",
          "name": "newOwner",
          "type": "address"
        }
      ],
      "name": "transferOwnership",
      "outputs": [],
      "stateMutability": "nonpayable",
      "type": "function"
    },
    {
      "inputs": [
        {
          "internalType": "address",
          "name": "employeeAddress",
          "type": "address"
        },
        {
          "internalType": "uint256",
          "name": "newSalaryPerSecond",
          "type": "uint256"
        }
      ],
      "name": "updateSalary",
      "outputs": [],
      "stateMutability": "nonpayable",
      "type": "function"
    },
    {
      "inputs": [],
      "name": "withdrawPayment",
      "outputs": [],
      "stateMutability": "nonpayable",
      "type": "function"
    }
  ],
  "bytecode": "0x60806040523480156200001157600080fd5b5060405162001fa038038062001fa083398101604081905262000034916200012f565b816001600160a01b0381166200006457604051631e4fbdf760e01b81526000600482015260240160405180910390fd5b6200006f81620000ac565b50600180556002620000828482620002ba565b50600380546001600160a01b0319166001600160a01b039290921691909117905550620003869050565b600080546001600160a01b038381166001600160a01b0319831681178455604051919092169283917f8be0079c531659141344cd1fd0a4f28419497f9722a3daafe3b4186f6b6457e09190a35050565b634e487b7160e01b600052604160045260246000fd5b80516001600160a01b03811681146200012a57600080fd5b919050565b6000806000606084860312156200014557600080fd5b83516001600160401b03808211156200015d57600080fd5b818601915086601f8301126200017257600080fd5b815181811115620001875762000187620000fc565b604051601f8201601f19908116603f01168101908382118183101715620001b257620001b2620000fc565b81604052828152602093508984848701011115620001cf57600080fd5b600091505b82821015620001f35784820184015181830185015290830190620001d4565b60008484830101528097505050506200020e81870162000112565b93505050620002206040850162000112565b90509250925092565b600181811c908216806200023e57607f821691505b6020821081036200025f57634e487b7160e01b600052602260045260246000fd5b50919050565b601f821115620002b5576000816000526020600020601f850160051c81016020861015620002905750805b601f850160051c820191505b81811015620002b1578281556001016200029c565b5050505b505050565b81516001600160401b03811115620002d657620002d6620000fc565b620002ee81620002e7845462000229565b8462000265565b602080601f8311600181146200032657600084156200030d5750858301515b600019600386901b1c1916600185901b178555620002b1565b600085815260208120601f198616915b82811015620003575788860151825594840194600190910190840162000336565b5085821015620003765787850151600019600388901b60f8161c191681555b5050505050600190811b01905550565b611c0a80620003966000396000f3fe608060405234801561001057600080fd5b506004361061018e5760003560e01c8063968ed600116100de578063c3b2d07a11610097578063db2e21bc11610071578063db2e21bc14610403578063e3366fed1461040b578063f2fde38b14610420578063fd59025e1461043357600080fd5b8063c3b2d07a146103ca578063d0678947146103dd578063d108177a146103f057600080fd5b8063968ed600146102c657806399e18aa1146102cf578063a0821be3146102e2578063a118babd14610302578063abaaf1f61461030a578063b2ac30121461039257600080fd5b806344ef7ca21161014b578063715018a611610125578063715018a6146102875780637b3d8c9f1461028f5780638da5cb5b146102a25780638fe123d7146102b357600080fd5b806344ef7ca21461026157806352b9b973146102695780636c4354941461027257600080fd5b806314df797e1461019357806322003f10146101bb5780633013ce29146101d057806332648e09146101fb5780633b76594d146102205780633dd6d53314610233575b600080fd5b61019b610446565b604080519384526020840192909252908201526060015b60405180910390f35b6101ce6101c9366004611710565b6104ba565b005b6003546101e3906001600160a01b031681565b6040516001600160a01b0390911681526020016101b2565b61020e61020936600461173a565b6105c6565b6040516101b2969594939291906117a2565b6101ce61022e3660046117e9565b6106fb565b61025361024136600461173a565b60076020526000908152604090205481565b6040519081526020016101b2565b6101ce6107b2565b610253600a5481565b61027a610849565b6040516101b29190611802565b6101ce6108d7565b6101ce61029d366004611815565b6108eb565b6000546001600160a01b03166101e3565b6101ce6102c136600461173a565b610a93565b61025360095481565b6101ce6102dd36600461185e565b610ade565b6102536102f036600461173a565b60086020526000908152604090205481565b6101ce610daf565b61037061031836600461173a565b6001600160a01b0316600090815260056020908152604091829020825160808101845281548082526001830154938201849052600283015494820185905260039092015460ff16151560609091018190529093919291565b60408051948552602085019390935291830152151560608201526080016101b2565b6103706103a036600461173a565b60056020526000908152604090208054600182015460028301546003909301549192909160ff1684565b6101e36103d83660046117e9565b610ed6565b61020e6103eb36600461173a565b610f00565b6101ce6103fe36600461173a565b610fcf565b6101ce6111a3565b61041361124a565b6040516101b29190611929565b6101ce61042e36600461173a565b6112ac565b61025361044136600461173a565b6112e7565b6000808080805b6006548110156104a757600760006006838154811061046e5761046e611976565b60009182526020808320909101546001600160a01b0316835282019290925260400190205461049d90836119a2565b915060010161044d565b50600a5460095490959094509092509050565b6104c261141c565b6001600160a01b03821660009081526004602081905260409091200154829060ff166105095760405162461bcd60e51b8152600401610500906119bb565b60405180910390fd5b600082116105595760405162461bcd60e51b815260206004820152601d60248201527f53616c617279206d7573742062652067726561746572207468616e20300000006044820152606401610500565b61056283611449565b6001600160a01b038316600081815260046020908152604091829020600101805490869055825181815291820186905292917fe2afa2becb25a6b6b20ab1801bff38cd94018485e35ef475d844c8c3c605414491015b60405180910390a250505050565b6001600160a01b038082166000908152600460208181526040808420815160c0810183528154909616865260018101549286019290925260028201549085015260038101546060858101919091529181015460ff16151560808501526005810180549394859485948594859491938593909260a0840191610646906119e8565b80601f0160208091040260200160405190810160405280929190818152602001828054610672906119e8565b80156106bf5780601f10610694576101008083540402835291602001916106bf565b820191906000526020600020905b8154815290600101906020018083116106a257829003601f168201915b5050509190925250508151602083015160408401516060850151608086015160a090960151939e929d50909b5099509297509550909350505050565b6000811161074b5760405162461bcd60e51b815260206004820152601d60248201527f416d6f756e74206d7573742062652067726561746572207468616e20300000006044820152606401610500565b600354610763906001600160a01b031633308461156c565b806009600082825461077591906119a2565b909155505060405181815233907f543ba50a5eec5e6178218e364b1d0f396157b3c8fa278522c2cb7fd99407d4749060200160405180910390a250565b6107ba61141c565b60005b6006548110156108465760046000600683815481106107de576107de611976565b60009182526020808320909101546001600160a01b0316835282019290925260400190206004015460ff161561083e5761083e6006828154811061082457610824611976565b6000918252602090912001546001600160a01b0316611449565b6001016107bd565b50565b60028054610856906119e8565b80601f0160208091040260200160405190810160405280929190818152602001828054610882906119e8565b80156108cf5780601f106108a4576101008083540402835291602001916108cf565b820191906000526020600020905b8154815290600101906020018083116108b257829003601f168201915b505050505081565b6108df61141c565b6108e960006115d3565b565b6108f361141c565b6001600160a01b03831660009081526004602081905260409091200154839060ff166109315760405162461bcd60e51b8152600401610500906119bb565b600083116109815760405162461bcd60e51b815260206004820152601d60248201527f416d6f756e74206d7573742062652067726561746572207468616e20300000006044820152606401610500565b600082116109d15760405162461bcd60e51b815260206004820181905260248201527f4672657175656e6379206d7573742062652067726561746572207468616e20306044820152606401610500565b604051806080016040528084815260200183426109ee91906119a2565b81526020808201859052600160409283018190526001600160a01b0388166000818152600584528490208551815592850151918301919091559183015160028201556060909201516003909201805460ff1916921515929092179091557f50deec5068a87539e4304edc26fd4790924ae48fd8743b4a8b3cb444d681f9618484610a7881426119a2565b604080519384526020840192909252908201526060016105b8565b6001600160a01b03811660009081526004602081905260409091200154819060ff16610ad15760405162461bcd60e51b8152600401610500906119bb565b610ada82611449565b5050565b610ae661141c565b6001600160a01b038316610b3c5760405162461bcd60e51b815260206004820152601860248201527f496e76616c696420656d706c6f796565206164647265737300000000000000006044820152606401610500565b6000546001600160a01b03166001600160a01b0316836001600160a01b031603610ba85760405162461bcd60e51b815260206004820152601c60248201527f43616e6e6f7420616464206f776e657220617320656d706c6f796565000000006044820152606401610500565b6001600160a01b0383166000908152600460208190526040909120015460ff1615610c155760405162461bcd60e51b815260206004820152601760248201527f456d706c6f79656520616c7265616479206578697374730000000000000000006044820152606401610500565b60008211610c655760405162461bcd60e51b815260206004820152601d60248201527f53616c617279206d7573742062652067726561746572207468616e20300000006044820152606401610500565b6040805160c0810182526001600160a01b038581168083526020808401878152428587018181526060870191825260016080880181815260a089018b8152600097885260049687905299909620885181546001600160a01b0319169816979097178755925192860192909255905160028501555160038401559051908201805460ff191691151591909117905591519091906005820190610d069082611a72565b50506006805460018101825560009182527ff652222313e28459528d920b65115c16c04f3efc82aaedc97be59f3f377c0d3f0180546001600160a01b0319166001600160a01b038716179055600a8054925090610d6283611b32565b9190505550826001600160a01b03167f980d43b6e6cd7d6e64ac67fb62439cb98c9b4951cd881d535345a295987e2b878383604051610da2929190611b4b565b60405180910390a2505050565b610db7611623565b336000908152600460208190526040909120015460ff16610e135760405162461bcd60e51b81526020600482015260166024820152754e6f7420616e2061637469766520656d706c6f79656560501b6044820152606401610500565b610e1c33611449565b3360009081526008602052604090205480610e6e5760405162461bcd60e51b81526020600482015260126024820152714e6f2066756e647320617661696c61626c6560701b6044820152606401610500565b33600081815260086020526040812055600354610e97916001600160a01b03909116908361164d565b60405181815233907f84511ecc081974f18e7f3e0dcc19db078b55bbd3852ddd0dd85b3aebb7bf94c29060200160405180910390a2506108e960018055565b60068181548110610ee657600080fd5b6000918252602090912001546001600160a01b0316905081565b60046020819052600091825260409091208054600182015460028301546003840154948401546005850180546001600160a01b03909516969395929460ff9092169291610f4c906119e8565b80601f0160208091040260200160405190810160405280929190818152602001828054610f78906119e8565b8015610fc55780601f10610f9a57610100808354040283529160200191610fc5565b820191906000526020600020905b815481529060010190602001808311610fa857829003601f168201915b5050505050905086565b610fd761141c565b6001600160a01b03811660009081526004602081905260409091200154819060ff166110155760405162461bcd60e51b8152600401610500906119bb565b61101e82611449565b6001600160a01b0382166000908152600460208181526040808420909201805460ff19908116909155600590915290822060030180549091169055600a80549161106783611b64565b919050555060005b60065481101561116a57826001600160a01b03166006828154811061109657611096611976565b6000918252602090912001546001600160a01b03160361116257600680546110c090600190611b7b565b815481106110d0576110d0611976565b600091825260209091200154600680546001600160a01b0390921691839081106110fc576110fc611976565b9060005260206000200160006101000a8154816001600160a01b0302191690836001600160a01b03160217905550600680548061113b5761113b611b8e565b600082815260209020810160001990810180546001600160a01b031916905501905561116a565b60010161106f565b506040516001600160a01b038316907fabae6e64cb4315875c29d42347a312f5e9fce4ab564e9722b43dd78d0751135a90600090a25050565b6111ab61141c565b6003546040516370a0823160e01b81523060048201526000916001600160a01b0316906370a0823190602401602060405180830381865afa1580156111f4573d6000803e3d6000fd5b505050506040513d601f19601f820116820180604052508101906112189190611ba4565b905061124261122f6000546001600160a01b031690565b6003546001600160a01b0316908361164d565b506000600955565b606060068054806020026020016040519081016040528092919081815260200182805480156112a257602002820191906000526020600020905b81546001600160a01b03168152600190910190602001808311611284575b5050505050905090565b6112b461141c565b6001600160a01b0381166112de57604051631e4fbdf760e01b815260006004820152602401610500565b610846816115d3565b6001600160a01b038082166000908152600460208181526040808420815160c08101835281549096168652600181015492860192909252600282015490850152600381015460608501529081015460ff16151560808401526005810180549293849390929160a084019161135a906119e8565b80601f0160208091040260200160405190810160405280929190818152602001828054611386906119e8565b80156113d35780601f106113a8576101008083540402835291602001916113d3565b820191906000526020600020905b8154815290600101906020018083116113b657829003601f168201915b505050505081525050905080608001516113f05750600092915050565b60008160600151426114029190611b7b565b90508160200151816114149190611bbd565b949350505050565b6000546001600160a01b031633146108e95760405163118cdaa760e01b8152336004820152602401610500565b6001600160a01b03811660009081526004602081905260409091209081015460ff16611473575050565b60008160030154426114859190611b7b565b905060008260010154826114999190611bbd565b90506000811180156114ad57506009548111155b15611566576001600160a01b038416600090815260086020526040812080548392906114da9084906119a2565b90915550506001600160a01b038416600090815260076020526040812080548392906115079084906119a2565b9250508190555080600960008282546115209190611b7b565b90915550504260038401556040518181526001600160a01b038516907fa5957fefb5b0f981554450d4d8dde003083cd202e3d5a2992e09c88ad1f0d791906020016105b8565b50505050565b6040516001600160a01b0384811660248301528381166044830152606482018390526115669186918216906323b872dd906084015b604051602081830303815290604052915060e01b6020820180516001600160e01b038381831617835250505050611683565b600080546001600160a01b038381166001600160a01b0319831681178455604051919092169283917f8be0079c531659141344cd1fd0a4f28419497f9722a3daafe3b4186f6b6457e09190a35050565b60026001540361164657604051633ee5aeb560e01b815260040160405180910390fd5b6002600155565b6040516001600160a01b0383811660248301526044820183905261167e91859182169063a9059cbb906064016115a1565b505050565b600080602060008451602086016000885af1806116a6576040513d6000823e3d81fd5b50506000513d915081156116be5780600114156116cb565b6001600160a01b0384163b155b1561156657604051635274afe760e01b81526001600160a01b0385166004820152602401610500565b80356001600160a01b038116811461170b57600080fd5b919050565b6000806040838503121561172357600080fd5b61172c836116f4565b946020939093013593505050565b60006020828403121561174c57600080fd5b611755826116f4565b9392505050565b6000815180845260005b8181101561178257602081850181015186830182015201611766565b506000602082860101526020601f19601f83011685010191505092915050565b60018060a01b0387168152856020820152846040820152836060820152821515608082015260c060a082015260006117dd60c083018461175c565b98975050505050505050565b6000602082840312156117fb57600080fd5b5035919050565b602081526000611755602083018461175c565b60008060006060848603121561182a57600080fd5b611833846116f4565b95602085013595506040909401359392505050565b634e487b7160e01b600052604160045260246000fd5b60008060006060848603121561187357600080fd5b61187c846116f4565b925060208401359150604084013567ffffffffffffffff808211156118a057600080fd5b818601915086601f8301126118b457600080fd5b8135818111156118c6576118c6611848565b604051601f8201601f19908116603f011681019083821181831017156118ee576118ee611848565b8160405282815289602084870101111561190757600080fd5b8260208601602083013760006020848301015280955050505050509250925092565b6020808252825182820181905260009190848201906040850190845b8181101561196a5783516001600160a01b031683529284019291840191600101611945565b50909695505050505050565b634e487b7160e01b600052603260045260246000fd5b634e487b7160e01b600052601160045260246000fd5b808201808211156119b5576119b561198c565b92915050565b602080825260139082015272456d706c6f796565206e6f742061637469766560681b604082015260600190565b600181811c908216806119fc57607f821691505b602082108103611a1c57634e487b7160e01b600052602260045260246000fd5b50919050565b601f82111561167e576000816000526020600020601f850160051c81016020861015611a4b5750805b601f850160051c820191505b81811015611a6a57828155600101611a57565b505050505050565b815167ffffffffffffffff811115611a8c57611a8c611848565b611aa081611a9a84546119e8565b84611a22565b602080601f831160018114611ad55760008415611abd5750858301515b600019600386901b1c1916600185901b178555611a6a565b600085815260208120601f198616915b82811015611b0457888601518255948401946001909101908401611ae5565b5085821015611b225787850151600019600388901b60f8161c191681555b5050505050600190811b01905550565b600060018201611b4457611b4461198c565b5060010190565b828152604060208201526000611414604083018461175c565b600081611b7357611b7361198c565b506000190190565b818103818111156119b5576119b561198c565b634e487b7160e01b600052603160045260246000fd5b600060208284031215611bb657600080fd5b5051919050565b80820281158282048414176119b5576119b561198c56fea2646970667358221220b3ba108a227de1b538c43c110eeb5b3e20a162f241bd9a1aeb6fd237f1905d9564736f6c63430008180033",
  "linkReferences": {},
  "deployedLinkReferences": {}
}