{
  "_format": "hh-sol-artifact-1",
  "contractName": "OrganizationFactory",
  "sourceName": "contracts/OrganizationFactory.sol",
  "abi": [
    {
      "inputs": [
        {
          "internalType": "address",
          "name": "_defaultPaymentToken",
          "type": "address"
        }
      ],
      "stateMutability": "nonpayable",
      "type": "constructor"
    },
    {
      "inputs": [
        {
          "internalType": "address",
          "name": "owner",
          "type": "address"
        }
      ],
      "name": "OwnableInvalidOwner",
      "type": "error"
    },
    {
      "inputs": [
        {
          "internalType": "address",
          "name": "account",
          "type": "address"
        }
      ],
      "name": "OwnableUnauthorizedAccount",
      "type": "error"
    },
    {
      "anonymous": false,
      "inputs": [
        {
          "indexed": true,
          "internalType": "address",
          "name": "oldToken",
          "type": "address"
        },
        {
          "indexed": true,
          "internalType": "address",
          "name": "newToken",
          "type": "address"
        }
      ],
      "name": "DefaultPaymentTokenUpdated",
      "type": "event"
    },
    {
      "anonymous": false,
      "inputs": [
        {
          "indexed": true,
          "internalType": "address",
          "name": "owner",
          "type": "address"
        },
        {
          "indexed": true,
          "internalType": "address",
          "name": "organizationContract",
          "type": "address"
        },
        {
          "indexed": false,
          "internalType": "string",
          "name": "name",
          "type": "string"
        }
      ],
      "name": "OrganizationCreated",
      "type": "event"
    },
    {
      "anonymous": false,
      "inputs": [
        {
          "indexed": true,
          "internalType": "address",
          "name": "organizationContract",
          "type": "address"
        },
        {
          "indexed": true,
          "internalType": "address",
          "name": "owner",
          "type": "address"
        }
      ],
      "name": "OrganizationDeactivated",
      "type": "event"
    },
    {
      "anonymous": false,
      "inputs": [
        {
          "indexed": true,
          "internalType": "address",
          "name": "previousOwner",
          "type": "address"
        },
        {
          "indexed": true,
          "internalType": "address",
          "name": "newOwner",
          "type": "address"
        }
      ],
      "name": "OwnershipTransferred",
      "type": "event"
    },
    {
      "inputs": [
        {
          "internalType": "uint256",
          "name": "",
          "type": "uint256"
        }
      ],
      "name": "allOrganizations",
      "outputs": [
        {
          "internalType": "address",
          "name": "",
          "type": "address"
        }
      ],
      "stateMutability": "view",
      "type": "function"
    },
    {
      "inputs": [
        {
          "internalType": "string",
          "name": "organizationName",
          "type": "string"
        },
        {
          "internalType": "address",
          "name": "paymentToken",
          "type": "address"
        }
      ],
      "name": "createOrganization",
      "outputs": [
        {
          "internalType": "address",
          "name": "",
          "type": "address"
        }
      ],
      "stateMutability": "nonpayable",
      "type": "function"
    },
    {
      "inputs": [
        {
          "internalType": "address",
          "name": "organizationContract",
          "type": "address"
        }
      ],
      "name": "deactivateOrganization",
      "outputs": [],
      "stateMutability": "nonpayable",
      "type": "function"
    },
    {
      "inputs": [],
      "name": "defaultPaymentToken",
      "outputs": [
        {
          "internalType": "address",
          "name": "",
          "type": "address"
        }
      ],
      "stateMutability": "view",
      "type": "function"
    },
    {
      "inputs": [],
      "name": "getActiveOrganizationCount",
      "outputs": [
        {
          "internalType": "uint256",
          "name": "",
          "type": "uint256"
        }
      ],
      "stateMutability": "view",
      "type": "function"
    },
    {
      "inputs": [
        {
          "internalType": "address",
          "name": "owner",
          "type": "address"
        }
      ],
      "name": "getOrganizationByOwner",
      "outputs": [
        {
          "internalType": "address",
          "name": "",
          "type": "address"
        }
      ],
      "stateMutability": "view",
      "type": "function"
    },
    {
      "inputs": [
        {
          "internalType": "address",
          "name": "organizationContract",
          "type": "address"
        }
      ],
      "name": "getOrganizationInfo",
      "outputs": [
        {
          "internalType": "address",
          "name": "",
          "type": "address"
        },
        {
          "internalType": "string",
          "name": "",
          "type": "string"
        },
        {
          "internalType": "address",
          "name": "",
          "type": "address"
        },
        {
          "internalType": "uint256",
          "name": "",
          "type": "uint256"
        },
        {
          "internalType": "bool",
          "name": "",
          "type": "bool"
        }
      ],
      "stateMutability": "view",
      "type": "function"
    },
    {
      "inputs": [
        {
          "internalType": "uint256",
          "name": "offset",
          "type": "uint256"
        },
        {
          "internalType": "uint256",
          "name": "limit",
          "type": "uint256"
        }
      ],
      "name": "getOrganizations",
      "outputs": [
        {
          "internalType": "address[]",
          "name": "organizations",
          "type": "address[]"
        },
        {
          "internalType": "string[]",
          "name": "names",
          "type": "string[]"
        },
        {
          "internalType": "address[]",
          "name": "owners",
          "type": "address[]"
        },
        {
          "internalType": "uint256[]",
          "name": "createdAts",
          "type": "uint256[]"
        },
        {
          "internalType": "bool[]",
          "name": "activeStatuses",
          "type": "bool[]"
        }
      ],
      "stateMutability": "view",
      "type": "function"
    },
    {
      "inputs": [
        {
          "internalType": "address",
          "name": "owner",
          "type": "address"
        }
      ],
      "name": "getOrganizationsByOwner",
      "outputs": [
        {
          "internalType": "address[]",
          "name": "",
          "type": "address[]"
        }
      ],
      "stateMutability": "view",
      "type": "function"
    },
    {
      "inputs": [
        {
          "internalType": "address",
          "name": "organizationContract",
          "type": "address"
        }
      ],
      "name": "isValidOrganization",
      "outputs": [
        {
          "internalType": "bool",
          "name": "",
          "type": "bool"
        }
      ],
      "stateMutability": "view",
      "type": "function"
    },
    {
      "inputs": [
        {
          "internalType": "address",
          "name": "",
          "type": "address"
        }
      ],
      "name": "organizationInfo",
      "outputs": [
        {
          "internalType": "address",
          "name": "organizationContract",
          "type": "address"
        },
        {
          "internalType": "string",
          "name": "name",
          "type": "string"
        },
        {
          "internalType": "address",
          "name": "owner",
          "type": "address"
        },
        {
          "internalType": "uint256",
          "name": "createdAt",
          "type": "uint256"
        },
        {
          "internalType": "bool",
          "name": "isActive",
          "type": "bool"
        }
      ],
      "stateMutability": "view",
      "type": "function"
    },
    {
      "inputs": [],
      "name": "owner",
      "outputs": [
        {
          "internalType": "address",
          "name": "",
          "type": "address"
        }
      ],
      "stateMutability": "view",
      "type": "function"
    },
    {
      "inputs": [
        {
          "internalType": "address",
          "name": "",
          "type": "address"
        }
      ],
      "name": "ownerToOrganization",
      "outputs": [
        {
          "internalType": "address",
          "name": "",
          "type": "address"
        }
      ],
      "stateMutability": "view",
      "type": "function"
    },
    {
      "inputs": [],
      "name": "renounceOwnership",
      "outputs": [],
      "stateMutability": "nonpayable",
      "type": "function"
    },
    {
      "inputs": [],
      "name": "totalOrganizations",
      "outputs": [
        {
          "internalType": "uint256",
          "name": "",
          "type": "uint256"
        }
      ],
      "stateMutability": "view",
      "type": "function"
    },
    {
      "inputs": [
        {
          "internalType": "address",
          "name": "newOwner",
          "type": "address"
        }
      ],
      "name": "transferOwnership",
      "outputs": [],
      "stateMutability": "nonpayable",
      "type": "function"
    },
    {
      "inputs": [
        {
          "internalType": "address",
          "name": "newPaymentToken",
          "type": "address"
        }
      ],
      "name": "updateDefaultPaymentToken",
      "outputs": [],
      "stateMutability": "nonpayable",
      "type": "function"
    }
  ],
  "bytecode": "0x60806040523480156200001157600080fd5b50604051620038f6380380620038f6833981016040819052620000349162000136565b33806200005c57604051631e4fbdf760e01b8152600060048201526024015b60405180910390fd5b6200006781620000e6565b506001600160a01b038116620000c05760405162461bcd60e51b815260206004820152601560248201527f496e76616c6964207061796d656e7420746f6b656e0000000000000000000000604482015260640162000053565b600180546001600160a01b0319166001600160a01b039290921691909117905562000168565b600080546001600160a01b038381166001600160a01b0319831681178455604051919092169283917f8be0079c531659141344cd1fd0a4f28419497f9722a3daafe3b4186f6b6457e09190a35050565b6000602082840312156200014957600080fd5b81516001600160a01b03811681146200016157600080fd5b9392505050565b61377e80620001786000396000f3fe60806040523480156200001157600080fd5b5060043610620001205760003560e01c806369cbf44f11620000af578063a9647f41116200007a578063a9647f411462000273578063a9db214e146200028a578063b8ff3ca014620002cd578063e0dfb51414620002f3578063f2fde38b146200032257600080fd5b806369cbf44f1462000229578063715018a614620002405780638da5cb5b146200024a578063a1024912146200025c57600080fd5b80633079fa6111620000f05780633079fa6114620001c85780634cf5d55214620001e15780634f18b00714620001eb5780636412173e146200021557600080fd5b8062600e1c146200012557806310056c5a14620001595780631502a8a214620001835780631a44b182146200019c575b600080fd5b6200013c6200013636600462001226565b62000339565b6040516001600160a01b0390911681526020015b60405180910390f35b620001706200016a36600462001240565b62000364565b604051620001509594939291906200135a565b6200019a6200019436600462001432565b6200079c565b005b6200013c620001ad36600462001432565b6002602052600090815260409020546001600160a01b031681565b620001d2620008df565b60405190815260200162000150565b620001d260055481565b62000202620001fc36600462001432565b62000959565b6040516200015095949392919062001457565b6001546200013c906001600160a01b031681565b6200013c6200023a366004620014af565b62000a31565b6200019a62000d26565b6000546001600160a01b03166200013c565b6200019a6200026d36600462001432565b62000d3e565b620002026200028436600462001432565b62000dea565b620002bc6200029b36600462001432565b6001600160a01b031660009081526003602052604090206004015460ff1690565b604051901515815260200162000150565b620002e4620002de36600462001432565b62000f20565b6040516200015091906200157d565b6200013c6200030436600462001432565b6001600160a01b039081166000908152600260205260409020541690565b6200019a6200033336600462001432565b62001155565b600481815481106200034a57600080fd5b6000918252602090912001546001600160a01b0316905081565b60608060608060606004805490508710620003bd5760405162461bcd60e51b81526020600482015260146024820152734f6666736574206f7574206f6620626f756e647360601b60448201526064015b60405180910390fd5b6000620003cb8789620015a8565b600454909150811115620003de57506004545b6000620003ec8983620015be565b90508067ffffffffffffffff8111156200040a576200040a62001499565b60405190808252806020026020018201604052801562000434578160200160208202803683370190505b5096508067ffffffffffffffff81111562000453576200045362001499565b6040519080825280602002602001820160405280156200048857816020015b6060815260200190600190039081620004725790505b5095508067ffffffffffffffff811115620004a757620004a762001499565b604051908082528060200260200182016040528015620004d1578160200160208202803683370190505b5094508067ffffffffffffffff811115620004f057620004f062001499565b6040519080825280602002602001820160405280156200051a578160200160208202803683370190505b5093508067ffffffffffffffff81111562000539576200053962001499565b60405190808252806020026020018201604052801562000563578160200160208202803683370190505b50925060005b818110156200078f576000600462000582838d620015a8565b81548110620005955762000595620015d4565b60009182526020808320909101546001600160a01b03908116808452600383526040808520815160a08101909252805490931681526001830180549296509093840191620005e390620015ea565b80601f01602080910402602001604051908101604052809291908181526020018280546200061190620015ea565b8015620006625780601f10620006365761010080835404028352916020019162000662565b820191906000526020600020905b8154815290600101906020018083116200064457829003601f168201915b505050918352505060028201546001600160a01b031660208201526003820154604082015260049091015460ff16151560609091015280518b51919250908b9085908110620006b557620006b5620015d4565b60200260200101906001600160a01b031690816001600160a01b0316815250508060200151898481518110620006ef57620006ef620015d4565b60200260200101819052508060400151888481518110620007145762000714620015d4565b60200260200101906001600160a01b031690816001600160a01b03168152505080606001518784815181106200074e576200074e620015d4565b6020026020010181815250508060800151868481518110620007745762000774620015d4565b91151560209283029190910190910152505060010162000569565b5050509295509295909350565b6001600160a01b0381166000908152600360205260409020600481015460ff166200080a5760405162461bcd60e51b815260206004820152601760248201527f4f7267616e697a6174696f6e206e6f74206163746976650000000000000000006044820152606401620003b4565b60028101546001600160a01b03163314806200083057506000546001600160a01b031633145b6200086f5760405162461bcd60e51b815260206004820152600e60248201526d139bdd08185d5d1a1bdc9a5e995960921b6044820152606401620003b4565b60048101805460ff19169055600280820180546001600160a01b039081166000908152602093909352604080842080546001600160a01b03191690559154915191811692908516917fd7dd11168ed3b799a17756001b81b43114aac823c2e9a3c65616f10361608a449190a35050565b600080805b60045481101562000953576003600060048381548110620009095762000909620015d4565b60009182526020808320909101546001600160a01b0316835282019290925260400190206004015460ff16156200094a5781620009468162001620565b9250505b600101620008e4565b50919050565b600360205260009081526040902080546001820180546001600160a01b0390921692916200098790620015ea565b80601f0160208091040260200160405190810160405280929190818152602001828054620009b590620015ea565b801562000a065780601f10620009da5761010080835404028352916020019162000a06565b820191906000526020600020905b815481529060010190602001808311620009e857829003601f168201915b505050506002830154600384015460049094015492936001600160a01b039091169290915060ff1685565b60008083511162000a855760405162461bcd60e51b815260206004820152601a60248201527f4f7267616e697a6174696f6e206e616d652072657175697265640000000000006044820152606401620003b4565b336000908152600260205260409020546001600160a01b03161562000aed5760405162461bcd60e51b815260206004820152601b60248201527f4f7267616e697a6174696f6e20616c72656164792065786973747300000000006044820152606401620003b4565b60006001600160a01b0383161562000b06578262000b13565b6001546001600160a01b03165b90506001600160a01b03811662000b655760405162461bcd60e51b815260206004820152601560248201527424b73b30b634b2103830bcb6b2b73a103a37b5b2b760591b6044820152606401620003b4565b600084338360405162000b789062001218565b62000b86939291906200163c565b604051809103906000f08015801562000ba3573d6000803e3d6000fd5b506040805160a0810182526001600160a01b0383811680835260208084018b815233858701524260608601526001608086018190526000938452600390925294909120835181546001600160a01b031916931692909217825592519394508493919290919082019062000c179082620016c6565b50604082810151600283810180546001600160a01b03199081166001600160a01b0394851617909155606086015160038601556080909501516004948501805460ff191691151591909117905533600090815260209190915291822080548516918616918217905582546001810184559282527f8a35acfbc15ff81a39ae7d344fd709f28e8600b4aa8c65c6b64bfe7fe36bd19b9092018054909316909117909155600580549162000cc98362001620565b9190505550806001600160a01b0316336001600160a01b03167f033570404994c2586c43c3a7137b2a8ff27a656ae42e1898cd08629acdb5a2ca8860405162000d13919062001793565b60405180910390a3925050505b92915050565b62000d3062001199565b62000d3c6000620011c8565b565b62000d4862001199565b6001600160a01b03811662000d985760405162461bcd60e51b815260206004820152601560248201527424b73b30b634b2103830bcb6b2b73a103a37b5b2b760591b6044820152606401620003b4565b600180546001600160a01b038381166001600160a01b0319831681179093556040519116919082907fa566210e6c55347c190af0a730d7aca425b94bdf45fa78cc018caef4cd258a9090600090a35050565b6001600160a01b038082166000908152600360209081526040808320815160a0810190925280549094168152600184018054939460609486948594859485949193919284019162000e3b90620015ea565b80601f016020809104026020016040519081016040528092919081815260200182805462000e6990620015ea565b801562000eba5780601f1062000e8e5761010080835404028352916020019162000eba565b820191906000526020600020905b81548152906001019060200180831162000e9c57829003601f168201915b505050918352505060028201546001600160a01b0316602080830191909152600383015460408084019190915260049093015460ff1615156060928301528351908401519284015191840151608090940151909b929a5090985091965090945092505050565b60045460609060009067ffffffffffffffff81111562000f445762000f4462001499565b60405190808252806020026020018201604052801562000f6e578160200160208202803683370190505b5090506000805b600454811015620010a157846001600160a01b0316600360006004848154811062000fa45762000fa4620015d4565b60009182526020808320909101546001600160a01b03908116845290830193909352604090910190206002015416148015620010215750600360006004838154811062000ff55762000ff5620015d4565b60009182526020808320909101546001600160a01b0316835282019290925260400190206004015460ff165b156200109857600481815481106200103d576200103d620015d4565b9060005260206000200160009054906101000a90046001600160a01b0316838381518110620010705762001070620015d4565b6001600160a01b039092166020928302919091019091015281620010948162001620565b9250505b60010162000f75565b5060008167ffffffffffffffff811115620010c057620010c062001499565b604051908082528060200260200182016040528015620010ea578160200160208202803683370190505b50905060005b828110156200114c578381815181106200110e576200110e620015d4565b60200260200101518282815181106200112b576200112b620015d4565b6001600160a01b0390921660209283029190910190910152600101620010f0565b50949350505050565b6200115f62001199565b6001600160a01b0381166200118b57604051631e4fbdf760e01b815260006004820152602401620003b4565b6200119681620011c8565b50565b6000546001600160a01b0316331462000d3c5760405163118cdaa760e01b8152336004820152602401620003b4565b600080546001600160a01b038381166001600160a01b0319831681178455604051919092169283917f8be0079c531659141344cd1fd0a4f28419497f9722a3daafe3b4186f6b6457e09190a35050565b611fa080620017a983390190565b6000602082840312156200123957600080fd5b5035919050565b600080604083850312156200125457600080fd5b50508035926020909101359150565b60008151808452602080850194506020840160005b838110156200129f5781516001600160a01b03168752958201959082019060010162001278565b509495945050505050565b6000815180845260005b81811015620012d257602081850181015186830182015201620012b4565b506000602082860101526020601f19601f83011685010191505092915050565b60008151808452602080850194506020840160005b838110156200129f5781518752958201959082019060010162001307565b60008151808452602080850194506020840160005b838110156200129f5781511515875295820195908201906001016200133a565b60a0815260006200136f60a083018862001263565b6020838203818501528188518084528284019150828160051b850101838b0160005b83811015620013c357601f19878403018552620013b0838351620012aa565b9486019492509085019060010162001391565b50508681036040880152620013d9818b62001263565b9450505050508281036060840152620013f38186620012f2565b9050828103608084015262001409818562001325565b98975050505050505050565b80356001600160a01b03811681146200142d57600080fd5b919050565b6000602082840312156200144557600080fd5b620014508262001415565b9392505050565b600060018060a01b03808816835260a060208401526200147b60a0840188620012aa565b95166040830152506060810192909252151560809091015292915050565b634e487b7160e01b600052604160045260246000fd5b60008060408385031215620014c357600080fd5b823567ffffffffffffffff80821115620014dc57600080fd5b818501915085601f830112620014f157600080fd5b81358181111562001506576200150662001499565b604051601f8201601f19908116603f0116810190838211818310171562001531576200153162001499565b816040528281528860208487010111156200154b57600080fd5b826020860160208301376000602084830101528096505050505050620015746020840162001415565b90509250929050565b60208152600062001450602083018462001263565b634e487b7160e01b600052601160045260246000fd5b8082018082111562000d205762000d2062001592565b8181038181111562000d205762000d2062001592565b634e487b7160e01b600052603260045260246000fd5b600181811c90821680620015ff57607f821691505b6020821081036200095357634e487b7160e01b600052602260045260246000fd5b60006001820162001635576200163562001592565b5060010190565b606081526000620016516060830186620012aa565b6001600160a01b0394851660208401529290931660409091015292915050565b601f821115620016c1576000816000526020600020601f850160051c810160208610156200169c5750805b601f850160051c820191505b81811015620016bd57828155600101620016a8565b5050505b505050565b815167ffffffffffffffff811115620016e357620016e362001499565b620016fb81620016f48454620015ea565b8462001671565b602080601f8311600181146200173357600084156200171a5750858301515b600019600386901b1c1916600185901b178555620016bd565b600085815260208120601f198616915b82811015620017645788860151825594840194600190910190840162001743565b5085821015620017835787850151600019600388901b60f8161c191681555b5050505050600190811b01905550565b602081526000620014506020830184620012aa56fe60806040523480156200001157600080fd5b5060405162001fa038038062001fa083398101604081905262000034916200012f565b816001600160a01b0381166200006457604051631e4fbdf760e01b81526000600482015260240160405180910390fd5b6200006f81620000ac565b50600180556002620000828482620002ba565b50600380546001600160a01b0319166001600160a01b039290921691909117905550620003869050565b600080546001600160a01b038381166001600160a01b0319831681178455604051919092169283917f8be0079c531659141344cd1fd0a4f28419497f9722a3daafe3b4186f6b6457e09190a35050565b634e487b7160e01b600052604160045260246000fd5b80516001600160a01b03811681146200012a57600080fd5b919050565b6000806000606084860312156200014557600080fd5b83516001600160401b03808211156200015d57600080fd5b818601915086601f8301126200017257600080fd5b815181811115620001875762000187620000fc565b604051601f8201601f19908116603f01168101908382118183101715620001b257620001b2620000fc565b81604052828152602093508984848701011115620001cf57600080fd5b600091505b82821015620001f35784820184015181830185015290830190620001d4565b60008484830101528097505050506200020e81870162000112565b93505050620002206040850162000112565b90509250925092565b600181811c908216806200023e57607f821691505b6020821081036200025f57634e487b7160e01b600052602260045260246000fd5b50919050565b601f821115620002b5576000816000526020600020601f850160051c81016020861015620002905750805b601f850160051c820191505b81811015620002b1578281556001016200029c565b5050505b505050565b81516001600160401b03811115620002d657620002d6620000fc565b620002ee81620002e7845462000229565b8462000265565b602080601f8311600181146200032657600084156200030d5750858301515b600019600386901b1c1916600185901b178555620002b1565b600085815260208120601f198616915b82811015620003575788860151825594840194600190910190840162000336565b5085821015620003765787850151600019600388901b60f8161c191681555b5050505050600190811b01905550565b611c0a80620003966000396000f3fe608060405234801561001057600080fd5b506004361061018e5760003560e01c8063968ed600116100de578063c3b2d07a11610097578063db2e21bc11610071578063db2e21bc14610403578063e3366fed1461040b578063f2fde38b14610420578063fd59025e1461043357600080fd5b8063c3b2d07a146103ca578063d0678947146103dd578063d108177a146103f057600080fd5b8063968ed600146102c657806399e18aa1146102cf578063a0821be3146102e2578063a118babd14610302578063abaaf1f61461030a578063b2ac30121461039257600080fd5b806344ef7ca21161014b578063715018a611610125578063715018a6146102875780637b3d8c9f1461028f5780638da5cb5b146102a25780638fe123d7146102b357600080fd5b806344ef7ca21461026157806352b9b973146102695780636c4354941461027257600080fd5b806314df797e1461019357806322003f10146101bb5780633013ce29146101d057806332648e09146101fb5780633b76594d146102205780633dd6d53314610233575b600080fd5b61019b610446565b604080519384526020840192909252908201526060015b60405180910390f35b6101ce6101c9366004611710565b6104ba565b005b6003546101e3906001600160a01b031681565b6040516001600160a01b0390911681526020016101b2565b61020e61020936600461173a565b6105c6565b6040516101b2969594939291906117a2565b6101ce61022e3660046117e9565b6106fb565b61025361024136600461173a565b60076020526000908152604090205481565b6040519081526020016101b2565b6101ce6107b2565b610253600a5481565b61027a610849565b6040516101b29190611802565b6101ce6108d7565b6101ce61029d366004611815565b6108eb565b6000546001600160a01b03166101e3565b6101ce6102c136600461173a565b610a93565b61025360095481565b6101ce6102dd36600461185e565b610ade565b6102536102f036600461173a565b60086020526000908152604090205481565b6101ce610daf565b61037061031836600461173a565b6001600160a01b0316600090815260056020908152604091829020825160808101845281548082526001830154938201849052600283015494820185905260039092015460ff16151560609091018190529093919291565b60408051948552602085019390935291830152151560608201526080016101b2565b6103706103a036600461173a565b60056020526000908152604090208054600182015460028301546003909301549192909160ff1684565b6101e36103d83660046117e9565b610ed6565b61020e6103eb36600461173a565b610f00565b6101ce6103fe36600461173a565b610fcf565b6101ce6111a3565b61041361124a565b6040516101b29190611929565b6101ce61042e36600461173a565b6112ac565b61025361044136600461173a565b6112e7565b6000808080805b6006548110156104a757600760006006838154811061046e5761046e611976565b60009182526020808320909101546001600160a01b0316835282019290925260400190205461049d90836119a2565b915060010161044d565b50600a5460095490959094509092509050565b6104c261141c565b6001600160a01b03821660009081526004602081905260409091200154829060ff166105095760405162461bcd60e51b8152600401610500906119bb565b60405180910390fd5b600082116105595760405162461bcd60e51b815260206004820152601d60248201527f53616c617279206d7573742062652067726561746572207468616e20300000006044820152606401610500565b61056283611449565b6001600160a01b038316600081815260046020908152604091829020600101805490869055825181815291820186905292917fe2afa2becb25a6b6b20ab1801bff38cd94018485e35ef475d844c8c3c605414491015b60405180910390a250505050565b6001600160a01b038082166000908152600460208181526040808420815160c0810183528154909616865260018101549286019290925260028201549085015260038101546060858101919091529181015460ff16151560808501526005810180549394859485948594859491938593909260a0840191610646906119e8565b80601f0160208091040260200160405190810160405280929190818152602001828054610672906119e8565b80156106bf5780601f10610694576101008083540402835291602001916106bf565b820191906000526020600020905b8154815290600101906020018083116106a257829003601f168201915b5050509190925250508151602083015160408401516060850151608086015160a090960151939e929d50909b5099509297509550909350505050565b6000811161074b5760405162461bcd60e51b815260206004820152601d60248201527f416d6f756e74206d7573742062652067726561746572207468616e20300000006044820152606401610500565b600354610763906001600160a01b031633308461156c565b806009600082825461077591906119a2565b909155505060405181815233907f543ba50a5eec5e6178218e364b1d0f396157b3c8fa278522c2cb7fd99407d4749060200160405180910390a250565b6107ba61141c565b60005b6006548110156108465760046000600683815481106107de576107de611976565b60009182526020808320909101546001600160a01b0316835282019290925260400190206004015460ff161561083e5761083e6006828154811061082457610824611976565b6000918252602090912001546001600160a01b0316611449565b6001016107bd565b50565b60028054610856906119e8565b80601f0160208091040260200160405190810160405280929190818152602001828054610882906119e8565b80156108cf5780601f106108a4576101008083540402835291602001916108cf565b820191906000526020600020905b8154815290600101906020018083116108b257829003601f168201915b505050505081565b6108df61141c565b6108e960006115d3565b565b6108f361141c565b6001600160a01b03831660009081526004602081905260409091200154839060ff166109315760405162461bcd60e51b8152600401610500906119bb565b600083116109815760405162461bcd60e51b815260206004820152601d60248201527f416d6f756e74206d7573742062652067726561746572207468616e20300000006044820152606401610500565b600082116109d15760405162461bcd60e51b815260206004820181905260248201527f4672657175656e6379206d7573742062652067726561746572207468616e20306044820152606401610500565b604051806080016040528084815260200183426109ee91906119a2565b81526020808201859052600160409283018190526001600160a01b0388166000818152600584528490208551815592850151918301919091559183015160028201556060909201516003909201805460ff1916921515929092179091557f50deec5068a87539e4304edc26fd4790924ae48fd8743b4a8b3cb444d681f9618484610a7881426119a2565b604080519384526020840192909252908201526060016105b8565b6001600160a01b03811660009081526004602081905260409091200154819060ff16610ad15760405162461bcd60e51b8152600401610500906119bb565b610ada82611449565b5050565b610ae661141c565b6001600160a01b038316610b3c5760405162461bcd60e51b815260206004820152601860248201527f496e76616c696420656d706c6f796565206164647265737300000000000000006044820152606401610500565b6000546001600160a01b03166001600160a01b0316836001600160a01b031603610ba85760405162461bcd60e51b815260206004820152601c60248201527f43616e6e6f7420616464206f776e657220617320656d706c6f796565000000006044820152606401610500565b6001600160a01b0383166000908152600460208190526040909120015460ff1615610c155760405162461bcd60e51b815260206004820152601760248201527f456d706c6f79656520616c7265616479206578697374730000000000000000006044820152606401610500565b60008211610c655760405162461bcd60e51b815260206004820152601d60248201527f53616c617279206d7573742062652067726561746572207468616e20300000006044820152606401610500565b6040805160c0810182526001600160a01b038581168083526020808401878152428587018181526060870191825260016080880181815260a089018b8152600097885260049687905299909620885181546001600160a01b0319169816979097178755925192860192909255905160028501555160038401559051908201805460ff191691151591909117905591519091906005820190610d069082611a72565b50506006805460018101825560009182527ff652222313e28459528d920b65115c16c04f3efc82aaedc97be59f3f377c0d3f0180546001600160a01b0319166001600160a01b038716179055600a8054925090610d6283611b32565b9190505550826001600160a01b03167f980d43b6e6cd7d6e64ac67fb62439cb98c9b4951cd881d535345a295987e2b878383604051610da2929190611b4b565b60405180910390a2505050565b610db7611623565b336000908152600460208190526040909120015460ff16610e135760405162461bcd60e51b81526020600482015260166024820152754e6f7420616e2061637469766520656d706c6f79656560501b6044820152606401610500565b610e1c33611449565b3360009081526008602052604090205480610e6e5760405162461bcd60e51b81526020600482015260126024820152714e6f2066756e647320617661696c61626c6560701b6044820152606401610500565b33600081815260086020526040812055600354610e97916001600160a01b03909116908361164d565b60405181815233907f84511ecc081974f18e7f3e0dcc19db078b55bbd3852ddd0dd85b3aebb7bf94c29060200160405180910390a2506108e960018055565b60068181548110610ee657600080fd5b6000918252602090912001546001600160a01b0316905081565b60046020819052600091825260409091208054600182015460028301546003840154948401546005850180546001600160a01b03909516969395929460ff9092169291610f4c906119e8565b80601f0160208091040260200160405190810160405280929190818152602001828054610f78906119e8565b8015610fc55780601f10610f9a57610100808354040283529160200191610fc5565b820191906000526020600020905b815481529060010190602001808311610fa857829003601f168201915b5050505050905086565b610fd761141c565b6001600160a01b03811660009081526004602081905260409091200154819060ff166110155760405162461bcd60e51b8152600401610500906119bb565b61101e82611449565b6001600160a01b0382166000908152600460208181526040808420909201805460ff19908116909155600590915290822060030180549091169055600a80549161106783611b64565b919050555060005b60065481101561116a57826001600160a01b03166006828154811061109657611096611976565b6000918252602090912001546001600160a01b03160361116257600680546110c090600190611b7b565b815481106110d0576110d0611976565b600091825260209091200154600680546001600160a01b0390921691839081106110fc576110fc611976565b9060005260206000200160006101000a8154816001600160a01b0302191690836001600160a01b03160217905550600680548061113b5761113b611b8e565b600082815260209020810160001990810180546001600160a01b031916905501905561116a565b60010161106f565b506040516001600160a01b038316907fabae6e64cb4315875c29d42347a312f5e9fce4ab564e9722b43dd78d0751135a90600090a25050565b6111ab61141c565b6003546040516370a0823160e01b81523060048201526000916001600160a01b0316906370a0823190602401602060405180830381865afa1580156111f4573d6000803e3d6000fd5b505050506040513d601f19601f820116820180604052508101906112189190611ba4565b905061124261122f6000546001600160a01b031690565b6003546001600160a01b0316908361164d565b506000600955565b606060068054806020026020016040519081016040528092919081815260200182805480156112a257602002820191906000526020600020905b81546001600160a01b03168152600190910190602001808311611284575b5050505050905090565b6112b461141c565b6001600160a01b0381166112de57604051631e4fbdf760e01b815260006004820152602401610500565b610846816115d3565b6001600160a01b038082166000908152600460208181526040808420815160c08101835281549096168652600181015492860192909252600282015490850152600381015460608501529081015460ff16151560808401526005810180549293849390929160a084019161135a906119e8565b80601f0160208091040260200160405190810160405280929190818152602001828054611386906119e8565b80156113d35780601f106113a8576101008083540402835291602001916113d3565b820191906000526020600020905b8154815290600101906020018083116113b657829003601f168201915b505050505081525050905080608001516113f05750600092915050565b60008160600151426114029190611b7b565b90508160200151816114149190611bbd565b949350505050565b6000546001600160a01b031633146108e95760405163118cdaa760e01b8152336004820152602401610500565b6001600160a01b03811660009081526004602081905260409091209081015460ff16611473575050565b60008160030154426114859190611b7b565b905060008260010154826114999190611bbd565b90506000811180156114ad57506009548111155b15611566576001600160a01b038416600090815260086020526040812080548392906114da9084906119a2565b90915550506001600160a01b038416600090815260076020526040812080548392906115079084906119a2565b9250508190555080600960008282546115209190611b7b565b90915550504260038401556040518181526001600160a01b038516907fa5957fefb5b0f981554450d4d8dde003083cd202e3d5a2992e09c88ad1f0d791906020016105b8565b50505050565b6040516001600160a01b0384811660248301528381166044830152606482018390526115669186918216906323b872dd906084015b604051602081830303815290604052915060e01b6020820180516001600160e01b038381831617835250505050611683565b600080546001600160a01b038381166001600160a01b0319831681178455604051919092169283917f8be0079c531659141344cd1fd0a4f28419497f9722a3daafe3b4186f6b6457e09190a35050565b60026001540361164657604051633ee5aeb560e01b815260040160405180910390fd5b6002600155565b6040516001600160a01b0383811660248301526044820183905261167e91859182169063a9059cbb906064016115a1565b505050565b600080602060008451602086016000885af1806116a6576040513d6000823e3d81fd5b50506000513d915081156116be5780600114156116cb565b6001600160a01b0384163b155b1561156657604051635274afe760e01b81526001600160a01b0385166004820152602401610500565b80356001600160a01b038116811461170b57600080fd5b919050565b6000806040838503121561172357600080fd5b61172c836116f4565b946020939093013593505050565b60006020828403121561174c57600080fd5b611755826116f4565b9392505050565b6000815180845260005b8181101561178257602081850181015186830182015201611766565b506000602082860101526020601f19601f83011685010191505092915050565b60018060a01b0387168152856020820152846040820152836060820152821515608082015260c060a082015260006117dd60c083018461175c565b98975050505050505050565b6000602082840312156117fb57600080fd5b5035919050565b602081526000611755602083018461175c565b60008060006060848603121561182a57600080fd5b611833846116f4565b95602085013595506040909401359392505050565b634e487b7160e01b600052604160045260246000fd5b60008060006060848603121561187357600080fd5b61187c846116f4565b925060208401359150604084013567ffffffffffffffff808211156118a057600080fd5b818601915086601f8301126118b457600080fd5b8135818111156118c6576118c6611848565b604051601f8201601f19908116603f011681019083821181831017156118ee576118ee611848565b8160405282815289602084870101111561190757600080fd5b8260208601602083013760006020848301015280955050505050509250925092565b6020808252825182820181905260009190848201906040850190845b8181101561196a5783516001600160a01b031683529284019291840191600101611945565b50909695505050505050565b634e487b7160e01b600052603260045260246000fd5b634e487b7160e01b600052601160045260246000fd5b808201808211156119b5576119b561198c565b92915050565b602080825260139082015272456d706c6f796565206e6f742061637469766560681b604082015260600190565b600181811c908216806119fc57607f821691505b602082108103611a1c57634e487b7160e01b600052602260045260246000fd5b50919050565b601f82111561167e576000816000526020600020601f850160051c81016020861015611a4b5750805b601f850160051c820191505b81811015611a6a57828155600101611a57565b505050505050565b815167ffffffffffffffff811115611a8c57611a8c611848565b611aa081611a9a84546119e8565b84611a22565b602080601f831160018114611ad55760008415611abd5750858301515b600019600386901b1c1916600185901b178555611a6a565b600085815260208120601f198616915b82811015611b0457888601518255948401946001909101908401611ae5565b5085821015611b225787850151600019600388901b60f8161c191681555b5050505050600190811b01905550565b600060018201611b4457611b4461198c565b5060010190565b828152604060208201526000611414604083018461175c565b600081611b7357611b7361198c565b506000190190565b818103818111156119b5576119b561198c565b634e487b7160e01b600052603160045260246000fd5b600060208284031215611bb657600080fd5b5051919050565b80820281158282048414176119b5576119b561198c56fea2646970667358221220b3ba108a227de1b538c43c110eeb5b3e20a162f241bd9a1aeb6fd237f1905d9564736f6c63430008180033a2646970667358221220465046447f52bdb05db476536b28dd1ce85b7cd32ba1baa3f50f6eed0059fbfa64736f6c63430008180033",
  "linkReferences": {},
  "deployedLinkReferences": {}
}